{
  "contractName": "BRZTokenMinter",
  "abi": [
    {
      "inputs": [
        {
          "internalType": "address",
          "name": "tokenAddress",
          "type": "address"
        }
      ],
      "stateMutability": "nonpayable",
      "type": "constructor"
    },
    {
      "inputs": [],
      "name": "tokenBRZ",
      "outputs": [
        {
          "internalType": "contract IERC20Minter",
          "name": "",
          "type": "address"
        }
      ],
      "stateMutability": "view",
      "type": "function",
      "constant": true
    },
    {
      "inputs": [
        {
          "internalType": "address",
          "name": "account",
          "type": "address"
        },
        {
          "internalType": "uint256",
          "name": "amount",
          "type": "uint256"
        }
      ],
      "name": "mint",
      "outputs": [
        {
          "internalType": "bool",
          "name": "",
          "type": "bool"
        }
      ],
      "stateMutability": "nonpayable",
      "type": "function"
    }
  ],
  "bytecode": "0x608060405234801561001057600080fd5b506040516104263803806104268339818101604052810190610032919061008d565b806000806101000a81548173ffffffffffffffffffffffffffffffffffffffff021916908373ffffffffffffffffffffffffffffffffffffffff160217905550506100ff565b600081519050610087816100e8565b92915050565b60006020828403121561009f57600080fd5b60006100ad84828501610078565b91505092915050565b60006100c1826100c8565b9050919050565b600073ffffffffffffffffffffffffffffffffffffffff82169050919050565b6100f1816100b6565b81146100fc57600080fd5b50565b6103188061010e6000396000f3fe608060405234801561001057600080fd5b50600436106100365760003560e01c806333d59e071461003b57806340c10f1914610059575b600080fd5b610043610089565b604051610050919061022d565b60405180910390f35b610073600480360381019061006e9190610171565b6100ad565b6040516100809190610212565b60405180910390f35b60008054906101000a900473ffffffffffffffffffffffffffffffffffffffff1681565b60008060009054906101000a900473ffffffffffffffffffffffffffffffffffffffff1673ffffffffffffffffffffffffffffffffffffffff166340c10f1984846040518363ffffffff1660e01b815260040161010b9291906101e9565b600060405180830381600087803b15801561012557600080fd5b505af1158015610139573d6000803e3d6000fd5b505050506001905092915050565b600081359050610156816102b4565b92915050565b60008135905061016b816102cb565b92915050565b6000806040838503121561018457600080fd5b600061019285828601610147565b92505060206101a38582860161015c565b9150509250929050565b6101b681610248565b82525050565b6101c58161025a565b82525050565b6101d481610290565b82525050565b6101e381610286565b82525050565b60006040820190506101fe60008301856101ad565b61020b60208301846101da565b9392505050565b600060208201905061022760008301846101bc565b92915050565b600060208201905061024260008301846101cb565b92915050565b600061025382610266565b9050919050565b60008115159050919050565b600073ffffffffffffffffffffffffffffffffffffffff82169050919050565b6000819050919050565b600061029b826102a2565b9050919050565b60006102ad82610266565b9050919050565b6102bd81610248565b81146102c857600080fd5b50565b6102d481610286565b81146102df57600080fd5b5056fea26469706673582212201f72495cdb54bac91130c99b30ba1d70d0f4a6134e7fcbd7fd75ba09089edc7664736f6c63430008040033",
  "immutableReferences": {},
  "source": "// SPDX-License-Identifier: MIT\r\npragma solidity 0.8.4;\r\n\r\ninterface IERC20Minter {\r\n    function name() external view returns (string memory);\r\n    function symbol() external view returns (string memory);\r\n    function decimals() external view returns (uint8);\r\n    function totalSupply() external view returns (uint256);\r\n    function balanceOf(address account) external view returns (uint256);\r\n    function transfer(address recipient, uint256 amount) external returns (bool);\r\n    function allowance(address owner, address spender) external view returns (uint256);\r\n    function approve(address spender, uint256 amount) external returns (bool);\r\n    function transferFrom(address sender, address recipient, uint256 amount) external returns (bool);\r\n    function mint(address account, uint256 amount) external;\r\n    event Transfer(address indexed from, address indexed to, uint256 value);\r\n    event Approval(address indexed owner, address indexed spender, uint256 value);\r\n}\r\n\r\ncontract BRZTokenMinter {\r\n    \r\n    IERC20Minter public tokenBRZ;\r\n    \r\n    constructor(address tokenAddress) {\r\n        tokenBRZ = IERC20Minter(tokenAddress);\r\n    }\r\n  \r\n    function mint(address account, uint256 amount) public returns (bool) {\r\n        tokenBRZ.mint(account, amount);\r\n        return true;\r\n    }\r\n    \r\n}\r\n",
  "sourcePath": "C:/BLOCKCHAIN/TRANSFERO/brz-faucet/contracts/TokenMinter.sol",
  "compiler": {
    "name": "solc",
    "version": "0.8.4+commit.c7e474f2.Emscripten.clang"
  },
  "schemaVersion": "3.4.1",
  "updatedAt": "2021-06-23T03:11:03.544Z",
  "networkType": "ethereum",
  "devdoc": {
    "kind": "dev",
    "methods": {},
    "version": 1
  },
  "userdoc": {
    "kind": "user",
    "methods": {},
    "version": 1
  }
}